S00C0000536E616B652E733337F6
S11300000000022091010000BD010000BD010000BC
S1130010BD010000BD010000BD010000BD010000E4
S1130020BD010000BD010000BD010000BD010000D4
S1130030BD010000BC010000BD010000BD010000C5
S1130040BD01000019340000BD010000BD01000025
S1130050BD010000BD010000BD010000BD010000A4
S1130060BD010000BD010000BD01000035340000E9
S1130070BD010000BD010000BD010000BD01000084
S1130080BD010000BD010000BD010000BD01000074
S1130090BD010000BD010000BD010000BD01000064
S11300A0BD010000BD010000BD010000BD01000054
S11300B0BD010000BD010000BD010000BD01000044
S11300C0BD010000BD010000BD010000BD01000034
S11300D0BD010000BD010000BD01000010B5054CCC
S11300E0237833B9044B13B10448AFF300800123E0
S11300F0237010BD7001002000000000C038000013
S113010008B5034B1BB103490348AFF3008008BD96
S11301100000000074010020C0380000154B002BC3
S113012008BF134B9D46A3F5803A00218B460F462A
S11301301348144A121A03F099FB0F4B002B00D0FA
S113014098470E4B002B00D0984700200021040054
S11301500D000D48002802D00C48AFF3008003F0D6
S113016061FB2000290003F073F903F047FB00BF93
S11301700000080000000220000000000000000051
S113018070010020A4010020000000000000000015
S1130190064880470649074A074B9A42BEBF51F8B2
S11301A0040B42F8040BF8E7FFF7B8FF350300002F
S11301B0CC3800000000002070010020FEE700BFE2
S11301C080B400AF034BDB6C1B0EDBB21846BD469C
S11301D080BC7047B081E00F80B582B000AF00F002
S11301E01FF87860074B5B6803F00F037A6822FA04
S11301F003F37B60044A7B6813607B681846083706
S1130200BD4680BD00800C400800002080B400AFD3
S1130210024B1846BD4680BC704700BF006CDC0230
S113022080B582B000AF334BDB6A03F47053B3F58F
S1130230805F0AD0B3F5005F03D0B3F5006F08D038
S11302400BE02D4B1B687B6047E04FF400437B6061
S113025043E02A4B1B687B603FE0264BDB6803F4DA
S1130260E063B3F5007F1BD0B3F5007F05D8002B06
S113027024D0B3F5807F16D02BE0B3F5806F09D07E
S1130280B3F5A06F03D0B3F5407F06D021E01C4B3B
S11302907B6021E01B4B7B601EE01B4B7B601BE003
S11302A01A4B7B6018E0FFF78BFF0346122B02D931
S11302B0174B7B6010E0174B7B600DE0FFF780FF6E
S11302C00346122B02D9144B7B6005E0134B7B6071
S11302D002E000237B6000BF00BF064B1B689B0B42
S11302E003F0070301337A68B2FBF3F318460837C7
S11302F0BD4680BD00800C400400002000000020AA
S1130300003FAB01406F4001809FD500C0D8A700DB
S113031040B56400C0CF6A00804F120040420F0015
S113032080B400AF024B1B681846BD4680BC7047C2
S11303300000002080B400AF034B044A9A6000BF61
S1130340BD4680BC704700BF00ED00E00000000027
S113035080B400AF4FF400431846BD4680BC7047DC
S113036080B400AF4FF47A731846BD4680BC704722
S113037080B400AF024B1B681846BD4680BC704772
S11303800400002080B483B000AF786000BF054B48
S11303905A6E7B681340002BF9D100BF0C37BD4661
S11303A080BC704700A0084080B483B000AF786080
S11303B0054B9A6A7B68DB43034913408B6200BF99
S11303C00C37BD4680BC704700A0084080B500AF24
S11303D000222849002001F00FFC002225490120B9
S11303E001F00AFC00222349022001F005FC00224E
S11303F02049032001F000FC00221E49042001F0E2
S1130400FBFB00221B49052001F0F6FB00221949E1
S1130410062001F0F1FB00221649072001F0ECFB55
S11304200022FF21002001F0A5FC0022FF21012071
S113043001F0A0FC0022FF21022001F09BFC00221D
S1130440FF21032001F096FC0022FF21042001F08B
S113045091FC0022FF21052001F08CFC0022FF21E9
S1130460062001F087FC0022FF21072001F082FC16
S113047000BF80BD00F00FF080B582B000AF03462E
S1130480FB710121244800F0CBFC0321234800F038
S1130490C9FE4021224800F0ADFB012001F014F810
S11304A00121204800F0BCFC4FF0FF30FFF77CFF37
S11304B01D4801F03FFA0121082001F099FA0121B9
S11304C0102001F095FA0121802001F091FA012118
S11304D04FF4807001F08CFA01214FF4007001F0A8
S11304E087FAFB79002B0DD04FF4402001F000FD7A
S11304F04FF4803001F05AFA0C4BDB6F0B4A43F097
S11305000803D367FFF762FF4FF0FF30FFF73AFFAE
S113051000BF0837BD4680BDD0433E0002001E0028
S113052080002A0000362C009838000000800C401F
S113053080B584B000AF03463960FB710023FB60D3
S11305400023BB60FB790F2B72D801A252F823F071
S1130550910500009B050000A5050000AF05000003
S1130560B9050000C3050000CD050000D705000053
S1130570E1050000EB050000F5050000FF050000A3
S113058009060000130600001D06000027060000EF
S11305900123FB600C23BB604BE00023FB602023A2
S11305A0BB6046E00323FB602723BB6041E00223DA
S11305B0FB600C23BB603CE00023FB601C23BB609E
S11305C037E00323FB600C23BB6032E00423FB60B1
S11305D00C23BB602DE00023FB601E23BB6028E0DE
S11305E00523FB602723BB6023E00023FB60222359
S11305F0BB601EE00023FB602323BB6019E00723DC
S1130600FB600C23BB6014E00523FB600C23BB6080
S11306100FE00623FB600C23BB600AE00723FB60AA
S11306201D23BB6005E00723FB601F23BB6000E0C4
S113063000BF3B68002B05D00122B968F86801F0BF
S1130640F7F904E00022B968F86801F0F1F900BF95
S11306501037BD4680BD00BF80B582B000AF012118
S1130660104800F0DDFB01210F4800F0D9FB002306
S11306707B600FE00D4A7B6812F833000B4A7B68FD
S1130680DB00134459680123012201F095F87B68CB
S113069001337B607B68012BECDD00BF0837BD466E
S11306A080BD00BF4081040000D20400AC380000CB
S11306B080B487B000AFF860B9607A60FB6803F17A
S11306C00473DA00BB6813449B007B617B697A681E
S11306D01A6000BF1C37BD4680BC704780B485B02B
S11306E000AF786039607B6803F10473DA003B681B
S11306F013449B00FB60FB681B6818461437BD4617
S113070080BC704780B485B000AF78607B68002BF4
S113071003D07B68B3F5004F00BF7B68B3FA83F363
S1130720DBB2C3F11F03FB60FB6818461437BD46F8
S113073080BC704780B400AF034BDB6C1B0EDBB294
S11307401846BD4680BC7047B081E00F80B400AF4E
S1130750034BDB6C1B0CDBB21846BD4680BC7047F8
S1130760B081E00F80B582B000AFFFF7EFFF034622
S11307704A2B04D0792B02D0482B23D024E0154BEC
S11307801B699BB21B029BB203F47C53FB80114B8D
S11307909B691B091B0103F0F0039AB2FB88134306
S11307A0FB800C4BDB691B0903F00F039AB2FB8837
S11307B01343FB80FB88B3F5017F01D3064B04E0B0
S11307C0064B02E0054B00E0002318460837BD46FF
S11307D080BD00BFD0FF0FE000366E010048E80185
S11307E080B584B000AF78600123FB60FFF7BAFFE7
S11307F002467B68934204D80023FB600023BB605D
S11308000BE0FFF7AFFF03465B007A689A4202D819
S11308100123BB6001E00223BB60FA681E21084883
S1130820FFF746FF064B5B6823F48072BB681B022C
S1130830034913434B6000BF1037BD4680BD00BF62
S113084000800C4080B582B000AF1E210448FFF741
S113085045FF78607B6818460837BD4680BD00BFF9
S113086000800C4080B582B000AF214B5B6903F47B
S1130870E063B3F5007F1CD0B3F5007F05D8002BEF
S113088025D0B3F5807F1FD02AE0B3F5C06F24D004
S1130890B3F5E06F1ED0B3F5407F21D1FFF74AFFD7
S11308A00346122B02D9134B7B601CE0124B7B6076
S11308B019E0FFF73FFF0346122B02D90F4B7B6071
S11308C011E00F4B7B600EE00E4B7B600BE00E4B98
S11308D07B6008E00D4B7B6005E00D4B7B6002E024
S11308E000237B6000BF7B6818460837BD4680BD87
S11308F000800C40804F120040420F0040B564005D
S1130900C0CF6A00C0D8A700809FD500406F4001C7
S1130910003FAB0180B582B000AF0D4800F0D4FBBE
S11309200346FB70FB78072B05D0092B07D1FFF793
S113093077FC786006E0FFF795FF786002E000231B
S11309407B6000BF7B6818460837BD4680BD00BF8A
S113095006000E0080B485B000AF78603960204B8B
S11309605B6803F00703FB60FB68012B01D9042BD0
S113097002D10023FB7202E00123FB7200BF7B68FB
S1130980184A934207D9FB7A002B01D0052300E0D3
S11309900423FB6016E07B68124A93420BD87B6801
S11309A0114A934207D9FB7A002B01D0032300E0BC
S11309B00123FB6006E0FB7A002B01D0022300E058
S11309C00023FB60064B5B6823F007020449FB68C5
S11309D013434B6000BF1437BD4680BC704700BF53
S11309E000000C400048E8010024F40080B582B007
S11309F000AF0E4BDB6B002B14BF01230023FB71F4
S1130A000A4B41F67132DA63FFF700FC034600211A
S1130A101846FFF79FFFFB79002B02D0034B0022FF
S1130A20DA6300BF0837BD4680BD00BF00000C403C
S1130A3080B584B000AF786039600C4BDB6B002B61
S1130A4014BF01230023FB73084B41F67132DA63B0
S1130A5039687868FFF77EFFFB7B002B02D0034BDD
S1130A600022DA6300BF1037BD4680BD00000C4091
S1130A7090B585B000AF78600023BB607B68344AD2
S1130A80934203D0334A934200D000E000BF786819
S1130A9000F01AFB0346FB607B682D4A934203D0A7
S1130AA02C4A934206D00CE02B4B9B6A03F00303C1
S1130AB0FB6006E0284B9B6A9B0803F00303FB6082
S1130AC000BFFB68032B39D801A252F823F000BF02
S1130AD0070B0000E10A0000E90A0000F10A000027
S1130AE0FFF736FCB8602DE0FFF742FCB86029E060
S1130AF0FFF772FB0446FFF7A5FE0346013324FA11
S1130B0003F3BB601EE00023BB607B68104A934282
S1130B1003D07B680F4A934213D10F4B9A6A7B68C8
S1130B200B498B4201D1102300E0142322FA03F372
S1130B30002B06D0FFF714FCB86002E00023BB6072
S1130B4000E000BFBB6818461437BD4690BD00BF27
S1130B5002001E000300200000800C4080B483B01B
S1130B6000AF7860094B5B6D03F00103002B07D1E4
S1130B7000BF064B1A6D7B681340002BF9D100E0CF
S1130B8000BF0C37BD4680BC704700BF00800C40DE
S1130B9080B582B000AF104800F096FA0346FB70AF
S1130BA0FB78032B07D0092B09D0022B0BD1FFF7BD
S1130BB0DFFB78600AE0FFF7CBFB786006E0FFF725
S1130BC02FFB786002E000237B6000BF7B6818463F
S1130BD00837BD4680BD00BF0723260080B400AFA0
S1130BE000BFBD4680BC704780B400AF00BFBD46A7
S1130BF080BC704790B585B000AF786039607B6881
S1130C001B0903F00F03FB60FB68013B082B00F298
S1130C10F48001A252F823F03D0C0000FB0D00000B
S1130C20FB0D0000710C0000FB0D0000FB0D00002B
S1130C30990C0000E50C0000A70D00003B68002B98
S1130C4002D03B68082B00BFFFF7D0FE6D4B1B683A
S1130C5023F4E0323B68013B9B036A4913430B6076
S1130C60FFF7BAFAB8600021B868FFF7E1FEC5E003
S1130C703B68002B03D03B68B3F5007F00BF3868A6
S1130C80FFF740FD38605F4B9B6823F00F025D491E
S1130C903B6813438B60B1E03B68002B03D03B6897
S1130CA0B3F5007F00BFFFF7A1FEFFF7B9FA0246D4
S1130CB03B68B2FBF3F31846FFF792FD3868FFF781
S1130CC021FD38604F4B5B6823F00F024D493B68B0
S1130CD013434B60FFF780FAB8600021B868FFF750
S1130CE0A7FE8BE07B68484A93421ED0464A934253
S1130CF003D8464A934207D054E0454A934225D04C
S1130D00444A93423ED04DE00420FFF727FF386861
S1130D10FFF7F8FC38603B4B9B6E23F0F0023B6816
S1130D201B01384913438B663CE00420FFF716FF90
S1130D303868FFF7E7FC3860324B9B6E23F470622F
S1130D403B681B022F4913438B662BE03B680F2B38
S1130D5002D93B68802B00BF0420FFF7FFFE3868F0
S1130D60FFF7D0FC3860274B9B6E23F440541020CF
S1130D70FFF7C8FC02463B689B1A1B03214A234326
S1130D8093660FE00420FFF7E9FE3868FFF7BAFC2A
S1130D9038601C4B9B6E23F003021A493B681343D3
S1130DA08B6600BF2AE07B681B4A934203D01B4A30
S1130DB0934210D020E04020FFF7D0FE3868FFF7C0
S1130DC0A1FC38600F4B1B6F23F003020D493B68F5
S1130DD013430B6710E04020FFF7C0FE3868FFF7AD
S1130DE091FC3860074B1B6F23F030023B681B01FA
S1130DF0044913430B6700BF00E000BF00BF143772
S1130E00BD4690BD00800C4080261600801612005E
S1130E1080002A0080062E0090071A0090171C00FC
S1130E2080B586B000AF78600B46FB7000233B6151
S1130E307B681B0A03F00F03013B092B45D801A271
S1130E4052F823F0810E0000870E00006D0E0000A2
S1130E50CB0E0000CB0E00008D0E0000970E00009C
S1130E60CB0E0000CB0E0000A10E0000194B7B61DD
S1130E70194800F03DF803461846FFF7B1FC12E0AC
S1130E80164B7B610FE0164B7B610CE0154B7B61CD
S1130E9001233B6107E0144B7B6110233B6102E0BB
S1130EA0124B7B6100BF7B681B0B03F01F03FB60CD
S1130EB03B69002B02D03869FFF750FEFB781A46D5
S1130EC0F9687869FFF7F4FB00E000BF1837BD4606
S1130ED080BD00BF40800C40D0433E0008800C40E1
S1130EE044800C4058800C4060800C4078800C405A
S1130EF090B585B000AF78607B6803F47813B3F5E0
S1130F00D01F00F0AB80B3F5D01F1AD8B3F5602F13
S1130F1000F0BF80B3F5602F08D8B3F5003F3CD094
S1130F20B3F5802F2DD0002B27D0BEE0B3F5901F52
S1130F303CD0B3F5B01F47D0B3F5801F00F0AD80AF
S1130F40B3E0B3F5181F00F0AC80B3F5181F0AD84E
S1130F50B3F5F01F25D0B3F5001F7AD0B3F5E01F29
S1130F6000F08980A1E0B3F5301F4ED0B3F5381FEF
S1130F7062D0B3F5281F35D097E0FFF751F9F86038
S1130F8096E0FFF74DF9F8604C4B9B6803F00F03B4
S1130F90FA6822FA03F3FB608AE0FFF71DF9F860B0
S1130FA086E04748FFF764FDF86081E04448FFF7B6
S1130FB05FFDF860414B9B6E1B0903F00F03FA6859
S1130FC022FA03F3FB6073E03D48FFF751FDF8603C
S1130FD03A4B9B6E1B0A03F00F03FA6822FA03F3E1
S1130FE0FB6065E03648FFF743FDF860334B9B6ECA
S1130FF01B0B03F003041020FFF784FB0346234478
S1131000FA6822FA03F3FB6052E02D48FFF730FD43
S1131010F8602A4B9B6E1B0B03F00303FA6822FA59
S113102003F3FB60254BDB6F03F007030133FA681E
S1131030B2FBF3F3FB603BE02148FFF719FDF860D6
S11310401E4B9B6E03F00303FA6822FA03F3FB6062
S11310502EE01C48FFF70CFDF86029E01948FFF763
S113106007FDF860154B1B6F03F00303FA6822FABF
S113107003F3FB601CE01348FFF7FAFCF8600F4B26
S11310801B6F1B0903F00303FA6822FA03F3FB60E6
S11310900EE0FFF73FFCF8600AE0FFF7E3FBF860BF
S11310A006E0FFF775FDF86002E00023FB6000BF77
S11310B0FB6818461437BD4690BD00BF00800C4045
S11310C002001E000300200080B485B000AF7860E9
S11310D00123FB737B6803F00F03BB60BB68013B18
S11310E0062B00F2938001A252F823F009110000AC
S11310F03F1100007B1100000D1200000D120000D2
S1131100B7110000D9110000454BDB6A03F470539A
S1131110B3F5805F09D0B3F5005F03D0B3F5006F7A
S113112006D008E00223FB7308E00323FB7305E009
S11311300423FB7302E00523FB7300BF69E0384B13
S11311409B6A03F00303022B06D0032B07D0012B69
S113115008D10323FB730FE00223FB730CE0062387
S1131160FB7309E02E4B9B6A03F48033002B02D0FF
S11311700A23FB7300E000BF4BE0294B9B6A03F09A
S11311800C03082B06D00C2B07D0042B08D1032307
S1131190FB730FE00223FB730CE00623FB7309E0EF
S11311A01F4B9B6A03F48013002B02D00A23FB73AA
S11311B000E000BF2DE01A4B1B6803F08053002BA6
S11311C003D0B3F1805F03D023E00723FB7302E075
S11311D00923FB7300BF1CE0114BDB6A03F460338B
S11311E0B3F5803F08D0B3F5003F08D0B3F5004F06
S11311F008D10923FB7308E00223FB7305E00323F2
S1131200FB7302E00123FB7300BF02E00023FB73C6
S113121000BFFB7B18461437BD4680BC704700BF37
S113122000800C4080B588B000AF78600B46FB703E
S11312300323FB610323FB7600233B617B6803F0FC
S11312400F03FB60FB68013B062B00F22C8101A21B
S113125052F823F0711200004F1300004F130000E6
S1131260A7140000A7140000151400003F14000088
S1131270FB78023B082B00F2188101A252F823F0FC
S1131280A5120000AF120000B9120000FB1200000A
S1131290AB140000AB140000AB140000AB1400004E
S11312A0AB1400000423FB610023FB7631E003232D
S11312B0FB610123FB762CE00223FB610223FB7616
S11312C0FFF750FA034601331846FFF789FAFFF790
S11312D027F80246784B9A4206D9784B1B68774A1E
S11312E043F06003136014E0744B1B6823F0600345
S11312F0724A43F0200313600BE00123FB610323D4
S1131300FB76FFF72FFA034601331846FFF768FA16
S113131000BFFB7E01220121184600F0F3F8FFF71D
S113132065FBFFF75BFC654AFB6953626448FFF7A2
S1131330DFFD03461846FFF753FAFEF74DFFB8608A
S11313400021B868FFF774FBFFF74EFCB0E0FB78B0
S1131350013B092B00F2AB8001A252F823F000BF3D
S1131360891300008F1300009F130000AF140000C6
S1131370AF140000AF130000AF140000AF1400005E
S1131380AF140000CB13000000237B6122E0012294
S11313900121002000F0B6F802237B611AE001224B
S11313A00121012000F0AEF801237B6112E0FEF779
S11313B013FFB860B868FFF713FA0122042141480B
S11313C0FFF776F903237B6104E000237B610123AB
S11313D03B6100BFFB68022B0DD1384B9B6A23F4A1
S11313E0803323F003037A691A433B691B043349AE
S11313F013438B625CE0314B9B6A23F4801323F02C
S11314000C037A6992001A433B691B052B49134369
S11314108B624DE0FB78072B02D0092B07D047E005
S1131420264B1B68254A23F08053136006E0234BA8
S11314301B68224A43F08053136000BF38E0FB78F6
S1131440032B14D0092B22D0022B00D030E0012230
S11314500121002000F056F8184B40225A6200BFC8
S1131460164BDB6A03F48033002BF9D01AE0012217
S11314700121012000F046F8104B60225A6200BF9F
S11314800E4BDB6A03F40033002BF9D00AE00B4B5C
S113149020225A6200BF094BDB6A03F40043002B8D
S11314A0F9D000BF04E000BF02E000BF00E000BFCD
S11314B02037BD4680BD00BF0048E80100800C40D5
S11314C0D0433E0040800C4080B483B000AF7860CD
S11314D00B4B9B6D03F00803002B0CD17B6803F0CE
S11314E007037B60064BDB6F23F0070204497B682C
S11314F01343CB6700E000BF0C37BD4680BC704788
S113150000800C4080B586B000AF0346FB710B46EB
S1131510BB7113467B71FB79042B48D801A252F8A6
S113152023F000BF7115000063150000471500008B
S1131530391500005515000001233B610223FB60AF
S113154001237B611DE004233B610823FB6003232B
S11315507B6116E010233B612023FB6005237B6144
S11315600FE040233B618023FB6007237B6108E09D
S11315704FF480733B614FF40073FB6009237B617C
S113158000BFBB79002B0ED00B4A3B6913627B79F9
S1131590002B0DD000BF79690848FFF79FF8034678
S11315A0002BF8D004E0044AFB68136200E000BF9B
S11315B01837BD4680BD00BF00800C402C800C4015
S11315C080B487B000AFF860B9607A60FB6803F15B
S11315D00473DA00BB6813449B007B617B697A68FF
S11315E01A6000BF1C37BD4680BC704780B485B00C
S11315F000AFF860B9607A60FB681A68BB68DB43C7
S11316001A407B681A43FB681A6000BF1437BD4652
S113161080BC704780B483B000AF7860044A7B68B4
S1131620C2F81C3100BF0C37BD4680BC704700BFF8
S11316300060004080B483B000AF03463960FB71A2
S1131640FB79002B0DD0FB79012B0AD0FB79022BFF
S113165007D0FB79032B04D0FB79042B01D0FB7951
S1131660052B01223B6802FA03F30749FA7918466D
S11316701346DB0013449B000B441433186000BF73
S11316800C37BD4680BC70470060004080B483B016
S113169000AF03463960FB71FB79002B0DD0FB7959
S11316A0012B0AD0FB79022B07D0FB79032B04D042
S11316B0FB79042B01D0FB79052B01223B6802FA4C
S11316C003F30749FA7918461346DB0013449B00D9
S11316D00B441033186000BF0C37BD4680BC704704
S11316E00060004080B586B000AFB9607A601A46E9
S11316F00346FB731346BB7300237B61FB7B002B08
S11317000DD0FB7B012B0AD0FB7B022B07D0FB7B8C
S1131710032B04D0FB7B042B01D0FB7B052B7B68C4
S1131720072B0ED87B689B00072202FA03F1FA7B91
S11317307B689B0002FA03F31A461A48FFF756FF28
S113174010E07B68083B7B617B699B00072202FAFF
S113175003F1FA7B7B699B0002FA03F31A461248F1
S1131760FFF744FFBB7B1A4679681048FFF728FF50
S113177097F820301A4679680D48FFF721FF0122B7
S11317807B6802FA03F31846FFF744FF97F8243006
S11317901A4679680748FFF713FF00BF1837BD469C
S11317A080BD00BF0061004004610040086100404A
S11317B00C6100401061004080B584B000AFB96096
S11317C07B600346FB731346BB73FB7B002B0DD07E
S11317D0FB7B012B0AD0FB7B022B07D0FB7B032B6B
S11317E004D0FB7B042B01D0FB7B052BBB7B002BA4
S11317F00DD07B68002B05D0FB7BB9681846FFF73A
S113180045FF04E0FB7BB9681846FFF713FFBB688C
S1131810072B20D82D49FA7B1346DB0013449B0089
S11318200B4404331A68BB689B000F2101FA03F3CD
S1131830DB431340B97BBA68920001FA02F2114605
S11318402248FA7B19431346DB0013449B000344EC
S11318500433196025E01D49FA7B1346DB00134469
S11318609B000B4408331A68BB6803F18043083BB0
S11318709B000F2101FA03F3DB4302EA0301BA7B65
S1131880BB6803F18043083B9B0002FA03F30F4853
S1131890FA7B19431346DB0013449B0003440833CB
S11318A01960BB7B002B0DD17B68002B05D0FB7B23
S11318B0B9681846FFF7EAFE04E0FB7BB9681846EE
S11318C0FFF7B8FE00BF1037BD4680BD0060004082
S11318D080B483B000AF0346FB71FB79002B06D0C4
S11318E0084B1B68074A43F00103136005E0054BEE
S11318F01B68044A23F00103136000BF0C37BD4684
S113190080BC704700A0084080B487B000AFF86086
S1131910B9607A60FB6803F10473DA00BB681344AE
S11319209B007B617B697A681A6000BF1C37BD46E7
S113193080BC704780B584B000AF78601A4B5B6898
S1131940FB600020FFF7C4FFFB6823F4830323F04C
S11319501F03FB607B685B68FA681343FB607B686A
S11319601B7A1A46FB681343FB607B685B7A1A4652
S1131970FB681343FB607B68DB68FA681343FB6016
S11319807B681B8A1A46FB681343FB60064AFB68A4
S113199053607B681B78002B02D00120FFF798FF6F
S11319A000BF1037BD4680BD00A0084080B485B09C
S11319B000AF78600D4B5B68FB60FB6823F48033F9
S11319C0FB607B68002B08D0B3F5803F00D005E0B6
S11319D0FB6843F48033FB6000E000BF034AFB680C
S11319E0536000BF1437BD4680BC704700A0084058
S11319F080B483B000AF03460A46FB8013467B7174
S1131A007B79002B06D0094B9A68FB88074913435E
S1131A108B6006E0054B9A68FB88DB43034913405F
S1131A208B6000BF0C37BD4680BC704700A00840E7
S1131A3080B584B000AFF860B9601346FB71FB68F1
S1131A40072B00F2B38001A252F823F06D1A0000B4
S1131A50951A0000BD1A0000E51A00000D1B0000D5
S1131A60351B00005D1B0000851B0000BB681F2B9D
S1131A7006DCBB68FA7919464F48FFF745FF96E044
S1131A80BB68203BBB60BB68FA7919464B48FFF73B
S1131A903BFF8CE0BB681F2B06DCBB68FA79194658
S1131AA04748FFF731FF82E0BB68203BBB60BB685F
S1131AB0FA7919464348FFF727FF78E0BB681F2BE4
S1131AC006DCBB68FA7919463F48FFF71DFF6EE054
S1131AD0BB68203BBB60BB68FA7919463B48FFF7FB
S1131AE013FF64E0BB681F2B06DCBB68FA79194658
S1131AF03748FFF709FF5AE0BB68203BBB60BB686F
S1131B00FA7919463348FFF7FFFE50E0BB681F2BF4
S1131B1006DCBB68FA7919462F48FFF7F5FE46E064
S1131B20BB68203BBB60BB68FA7919462B48FFF7BA
S1131B30EBFE3CE0BB681F2B06DCBB68FA79194658
S1131B402748FFF7E1FE32E0BB68203BBB60BB687F
S1131B50FA7919462348FFF7D7FE28E0BB681F2B04
S1131B6006DCBB68FA7919461F48FFF7CDFE1EE074
S1131B70BB68203BBB60BB68FA7919461B48FFF77A
S1131B80C3FE14E0BB681F2B06DCBB68FA79194658
S1131B901748FFF7B9FE0AE0BB68203BBB60BB688F
S1131BA0FA7919461348FFF7AFFE00E000BF00BF03
S1131BB01037BD4680BD00BF40A0084050A008407B
S1131BC044A0084054A0084048A0084058A0084039
S1131BD04CA008405CA00840CCA00840B4A0084039
S1131BE0D0A00840B8A00840D4A00840BCA0084039
S1131BF0D8A00840C0A0084080B487B000AFF86007
S1131C00B9607A60FB68072B00F2AC8001A252F83D
S1131C1023F000BF351C0000591C00007D1C00008F
S1131C20A11C0000C51C0000ED1C0000151D0000D7
S1131C303D1D00004E4B1B6C7B61BB68DB437A6926
S1131C4013407B61BA687B6813407A6913437B61F4
S1131C50474A7B69136486E0454B5B6C7B61BB68D8
S1131C60DB437A6913407B61BA687B6813407A6905
S1131C7013437B613E4A7B69536474E03C4B9B6C29
S1131C807B61BB68DB437A6913407B61BA687B681C
S1131C9013407A6913437B61354A7B69936462E03C
S1131CA0334BDB6C7B61BB68DB437A6913407B613C
S1131CB0BA687B6813407A6913437B612C4A7B6959
S1131CC0D36450E02A4BD3F8CC307B61BB68DB4350
S1131CD07A6913407B61BA687B6813407A6913435D
S1131CE07B61234A7B69C2F8CC303CE0204BD3F8BB
S1131CF0D0307B61BB68DB437A6913407B61BA688F
S1131D007B6813407A6913437B61194A7B69C2F883
S1131D10D03028E0164BD3F8D4307B61BB68DB436A
S1131D207A6913407B61BA687B6813407A6913430C
S1131D307B610F4A7B69C2F8D43014E00C4BD3F8B2
S1131D40D8307B61BB68DB437A6913407B61BA6836
S1131D507B6813407A6913437B61054A7B69C2F847
S1131D60D83000E000BF00BF1C37BD4680BC7047C0
S1131D7000A0084080B487B000AFF860B9607A6012
S1131D80FB68072B00F2AC8001A252F823F000BFDD
S1131D90B11D0000D51D0000F91D00001D1E00002E
S1131DA0411E0000691E0000911E0000B91E0000C3
S1131DB04E4B1B6D7B61BB68DB437A6913407B61CF
S1131DC0BA687B6813407A6913437B61474A7B692D
S1131DD0136586E0454B5B6D7B61BB68DB437A69C9
S1131DE013407B61BA687B6813407A6913437B6153
S1131DF03E4A7B69536574E03C4B9B6D7B61BB68D9
S1131E00DB437A6913407B61BA687B6813407A6963
S1131E1013437B61354A7B69936562E0334BDB6D29
S1131E207B61BB68DB437A6913407B61BA687B687A
S1131E3013407A6913437B612C4A7B69D36550E074
S1131E402A4BD3F8B4307B61BB68DB437A69134017
S1131E507B61BA687B6813407A6913437B61234AC8
S1131E607B69C2F8B4303CE0204BD3F8B8307B61D6
S1131E70BB68DB437A6913407B61BA687B681340B3
S1131E807A6913437B61194A7B69C2F8B83028E048
S1131E90164BD3F8BC307B61BB68DB437A691340D3
S1131EA07B61BA687B6813407A6913437B610F4A8C
S1131EB07B69C2F8BC3014E00C4BD3F8C0307B61B2
S1131EC0BB68DB437A6913407B61BA687B68134063
S1131ED07A6913437B61054A7B69C2F8C03000E02C
S1131EE000BF00BF1C37BD4680BC704700A008403F
S1131EF080B483B000AF7860064B5B6823F4E012D3
S1131F0004497B6813434B6000BF0C37BD4680BC5B
S1131F10704700BF00A0084080B485B000AF78606F
S1131F201A4B5B69DBB29B00DBB203F03C03FB732F
S1131F30164B1B699B09DBB203F00303DAB2FB7B8C
S1131F401343FB737B68FA7B9A70104B1B69DBB2FB
S1131F5003F03F03DAB27B685A700C4B9B691B0990
S1131F60DBB21B01FB73094BDB691B09DBB203F01A
S1131F700F03DAB2FB7B1343FB737B68FA7B1A70A3
S1131F8000BF1437BD4680BC704700BFD0FF0FE0D0
S1131F9080B483B000AF78607B680D4A93420BD065
S1131FA07B680C4A934207D07B680B4A934203D068
S1131FB07B680A4A934201D1012300E0002303F025
S1131FC00103DBB218460C37BD4680BC704700BF26
S1131FD0000001400004014000080140000C0140E1
S1131FE080B584B000AF786039607868FFF7D0FFBF
S1131FF00023FB603B681B7883F00103DBB2002BFA
S113200002D07B6802225A607B6800225A623B68D5
S11320109B781A063B68DB781B041A433B689B7960
S11320209B021A433B68DB791B0213433A68127A1A
S113203013433A685278002A01D0402200E000227B
S113204013433A68527A002A01D0802200E0002229
S113205013433A68927A002A01D0202200E0002239
S113206013433A68D27A002A01D0102200E00022F9
S113207013433A68127B002A01D0082200E00022B0
S11320801343FB603B681B79002B02D04FF40052D2
S113209000E000223B685B79002B02D04FF08053B4
S11320A000E000231343FA681343FB607B68FA687B
S11320B01A603B681B78002B02D07B6801225A60AF
S11320C000BF1037BD4680BD80B483B000AF7860D8
S11320D07B685B6A18460C37BD4680BC70470000BD
S11320E080B584B000AF786039600023FB6089E07C
S11320F0FB68DB007A6813441B68BB60FB68DB0089
S11321007A6813441B79613B0C2B75D801A252F8F1
S113211023F000BF492100005B2100006D21000075
S11321207F21000091210000A3210000B5210000BF
S1132130F9210000F9210000F9210000F921000033
S1132140F9210000D72100003349BA6811F8123090
S11321506FF3000301F812304EE02F49BA6811F80A
S113216012306FF3410301F8123045E02A49BA688E
S113217011F812306FF3820301F812303CE0264963
S1132180BA6811F812306FF3C30301F8123033E068
S11321902149BA6811F812306FF3041301F81230B0
S11321A02AE01D49BA6811F812306FF3451301F89B
S11321B0123021E01849BA6811F812306FF386130F
S11321C001F81230144ABB685B0013445A786FF369
S11321D082025A7010E0104ABB685B0013445A78BC
S11321E06FF382025A700C49BA6811F812306FF317
S11321F0861301F8123000BF074801F0A7FAFB6804
S11322000133FB60FA683B689A42FFF671AF00BF86
S11322101037BD4680BD00BF9401002080B483B058
S113222000AF786039607B68092B00F26A8101A2F3
S113223052F823F05D220000B3220000D1220000F6
S113224019230000612300009B230000E323000006
S11322502B24000057240000BB240000AB4A3B6839
S11322601A44137843F001031370A84A3B681A44D4
S1132270137843F020031370A44A3B681A4413787C
S113228043F002031370A14A3B681A44137843F0E5
S1132290040313709D4A3B681A44137843F01003F7
S11322A013709A4A3B681A44137843F00803137076
S11322B027E1964A3B681A44137843F002031370EB
S11322C0924A3B681A44137843F00403137018E1EC
S11322D08E4A3B681A44137843F0010313708B4A07
S11322E03B681A44137843F002031370874A3B682F
S11322F01A44137843F040031370844A3B681A4429
S1132300137843F010031370804A3B681A4413781F
S113231043F008031370F4E07C4A3B681A441378D2
S113232043F001031370794A3B681A44137843F06D
S113233002031370754A3B681A44137843F0400350
S11323401370724A3B681A44137843F00403137001
S11323506E4A3B681A44137843F008031370D0E0C4
S11323606A4A3B681A44137843F020031370674A9F
S11323703B681A44137843F040031370634A3B6884
S11323801A44137843F002031370604A3B681A44FA
S1132390137843F004031370B3E05C4A3B681A44B7
S11323A0137843F001031370584A3B681A441378B6
S11323B043F020031370554A3B681A44137843F0E2
S11323C040031370514A3B681A44137843F00403E2
S11323D013704E4A3B681A44137843F00803137091
S11323E08FE04A4A3B681A44137843F02003137081
S11323F0464A3B681A44137843F040031370434A37
S11324003B681A44137843F0100313703F4A3B6847
S11324101A44137843F0080313703C4A3B681A4487
S1132420137843F0040313706BE0384A3B681A4492
S1132430137843F001031370344A3B681A44137849
S113244043F002031370314A3B681A44137843F093
S11324500403137055E02D4A3B681A44137843F083
S113246001031370294A3B681A44137843F020038C
S11324701370264A3B681A44137843F040031370E0
S1132480224A3B681A44137843F0020313701F4A2C
S11324903B681A44137843F0040313701B4A3B68E7
S11324A01A44137843F010031370184A3B681A4413
S11324B0137843F00803137023E0144A3B681A446A
S11324C0137843F001031370104A3B681A441378DD
S11324D043F0200313700D4A3B681A44137843F009
S11324E040031370094A3B681A44137843F002030B
S11324F01370064A3B681A44137843F004031370BC
S1132500FFE700BF0C37BD4680BC70479001002038
S113251080B483B000AF00237B6033E01D4A7B6846
S11325201A4413786FF3000313701A4A7B681A4431
S113253013786FF341031370164A7B681A441378B7
S11325406FF382031370134A7B681A4413786FF392
S1132550C30313700F4A7B681A4413786FF3041390
S113256013700C4A7B681A4413786FF34513137085
S1132570084A7B681A4413786FF3861313707B68D8
S113258001337B607B68012BC8DD00BF0C37BD467F
S113259080BC70479001002080B584B000AF7860A3
S11325A0FFF7B6FF124801F07BF87B68114A82FB03
S11325B003129210DB17D31AFB60FB686FF0090259
S11325C002FB03F37A681344BB600021B868FFF789
S11325D025FEFB68002B03D00121F868FFF71EFEDF
S11325E0034801F05DF800BF1037BD4680BD00BF51
S11325F0900100206766666680B582B000AF78609F
S11326007B68012B14D101210B20FDF791FF0121DF
S11326100C20FDF78DFF01210D20FDF789FF01211D
S11326200E20FDF785FF01210F20FDF781FF13E048
S113263000210B20FDF77CFF00210C20FDF778FF23
S113264000210D20FDF774FF00210E20FDF770FF1F
S113265000210F20FDF76CFF00BF0837BD4680BD89
S113266080B584B000AF786039600023FB6089E0F6
S1132670FB68DB007A6813441B68BB60FB68DB0003
S11326807A6813441B79613B0C2B75D801A252F86C
S113269023F000BFC9260000DB260000ED26000061
S11326A0FF26000011270000232700003527000023
S11326B07927000079270000792700007927000096
S11326C079270000572700003349BA6811F81230FF
S11326D043F0010301F812304EE02F49BA6811F8B3
S11326E0123043F0020301F8123045E02A49BA6877
S11326F011F8123043F0040301F812303CE026498B
S1132700BA6811F8123043F0080301F8123033E0CC
S11327102149BA6811F8123043F0100301F812305D
S11327202AE01D49BA6811F8123043F0200301F879
S1132730123021E01849BA6811F8123043F040030E
S113274001F81230144ABB685B0013445A7842F013
S113275004025A7010E0104ABB685B0013445A78B4
S113276042F004025A700C49BA6811F8123043F06E
S1132770400301F8123000BF074800F0E7FFFB6890
S11327800133FB60FA683B689A42FFF671AF00BF01
S11327901037BD4680BD00BF9401002080B485B0D1
S11327A000AF78600023FB6002E0FB680133FB604C
S11327B0054A7B6892FBF3F3FA689A42F5DB00BFA3
S11327C01437BD4680BC704760E3160080B487B000
S11327D000AFF8607B600B46FB721346BB727A68ED
S11327E007F1100392E8030083E80300BB7A012B8E
S11327F002D0032B2AD03DE0FB7A022B09D0042B14
S113280015D0012B00D035E07B681B6801333B6198
S11328101BE07B681B68062B02D162233B7514E026
S11328207B681B6801333B6166233B750DE07B6865
S11328301B68062B02D163233B7505E07B681B688C
S113284001333B6165233B7500BF13E0FB7A032B27
S113285004D0042B0AD0022B05D00AE07B681B6845
S1132860013B3B6105E066233B7502E065233B7554
S113287000BF00BFFB681A4607F1100393E803008A
S113288082E80300F8681C37BD4680BC704780B4FA
S113289087B000AFF8607B600B46FB721346BB72D7
S11328A07A6807F1100392E8030083E80300BB7A17
S11328B0012B02D0032B2AD03DE0FB7A022B09D056
S11328C0042B15D0012B00D035E07B681B68013345
S11328D03B611BE07B681B68062B02D162233B75BE
S11328E014E07B681B6801333B6166233B750DE094
S11328F07B681B68062B02D163233B7505E07B686C
S11329001B6801333B6165233B7500BF13E0FB7A11
S1132910032B04D0042B0AD0022B05D00AE07B68D9
S11329201B68013B3B6105E066233B7502E06523C0
S11329303B7500BF00BFFB681A4607F1100393E81C
S1132940030082E80300F8681C37BD4680BC70476A
S113295080B487B000AFF8607B600B46FB7213460F
S1132960BB727A6807F1100392E8030083E803005E
S1132970BB7A012B02D0032B2AD03DE0FB7A022B39
S113298009D0042B15D0012B00D035E07B681B68DF
S113299001333B611BE07B681B68062B02D1632378
S11329A03B7514E07B681B6801333B6165233B7511
S11329B00DE07B681B68062B02D162233B7505E0A2
S11329C07B681B6801333B6166233B7500BF13E0E2
S11329D0FB7A032B04D0042B0AD0022B05D00AE087
S11329E07B681B68013B3B6105E065233B7502E0A6
S11329F066233B7500BF00BFFB681A4607F110034E
S1132A0093E8030082E80300F8681C37BD4680BCE5
S1132A10704780B487B000AFF8607B600B46FB72F0
S1132A201346BB727A6807F1100392E8030083E847
S1132A300300BB7A012B02D0032B2AD03DE0FB7AA2
S1132A40022B09D0042B15D0012B00D035E07B6874
S1132A501B6801333B611BE07B681B68062B02D1BA
S1132A6063233B7514E07B681B6801333B6165237A
S1132A703B750DE07B681B68062B02D162233B7516
S1132A8005E07B681B6801333B6166233B7500BF2F
S1132A9013E0FB7A032B04D0042B0AD0022B05D0BD
S1132AA00AE07B681B68013B3B6105E065233B75DD
S1132AB002E066233B7500BF00BFFB681A4607F1BE
S1132AC0100393E8030082E80300F8681C37BD464E
S1132AD080BC704780B487B000AFF8607B600B4661
S1132AE0FB721346BB727A6807F1100392E8030085
S1132AF083E80300BB7A022B02D0042B16D02BE010
S1132B00FB7A022B07D0032B08D0012B00D023E043
S1132B1061233B7509E065233B7506E07B681B6810
S1132B20013B3B6161233B7516E015E0FB7A032B07
S1132B3007D0042B0CD0012B00D00CE067233B758D
S1132B4009E07B681B68013B3B6167233B7502E03E
S1132B5065233B7500BF00BFFB681A4607F11003ED
S1132B6093E8030082E80300F8681C37BD4680BC84
S1132B70704780B487B000AFF8607B600B46FB728F
S1132B801346BB727A6807F1100392E8030083E8E6
S1132B900300BB7A022B02D0042B16D02BE0FB7A65
S1132BA0022B07D0032B08D0012B00D023E067238E
S1132BB03B7509E066233B7506E07B681B68013BB7
S1132BC03B6167233B7516E015E0FB7A032B07D0C6
S1132BD0042B0CD0012B00D00CE064233B7509E0DE
S1132BE07B681B68013B3B6164233B7502E0662301
S1132BF03B7500BF00BFFB681A4607F1100393E85A
S1132C00030082E80300F8681C37BD4680BC7047A7
S1132C1080B487B000AFF8607B600B46FB7213464C
S1132C20BB727A6807F1100392E8030083E803009B
S1132C30BB7A022B02D0042B16D02BE0FB7A022B9A
S1132C400BD0032B0CD0012B00D023E07B681B6836
S1132C5001333B6167233B7505E062233B7502E06A
S1132C6067233B7516E015E0FB7A032B0BD0042B8E
S1132C700CD0012B00D00CE064233B757B681B68EF
S1132C8001333B6105E064233B7502E062233B753D
S1132C9000BF00BFFB681A4607F1100393E8030066
S1132CA082E80300F8681C37BD4680BC704780B4D6
S1132CB087B000AFF8607B600B46FB721346BB72B3
S1132CC07A6807F1100392E8030083E80300BB7AF3
S1132CD0022B02D0042B16D02BE0FB7A022B0BD054
S1132CE0032B0CD0012B00D023E07B681B6801333D
S1132CF03B6161233B7505E063233B7502E061237F
S1132D003B7516E015E0FB7A032B07D0042B0CD09F
S1132D10012B00D00CE067233B7509E07B681B683E
S1132D2001333B6167233B7502E063233B7500BFBE
S1132D3000BFFB681A4607F1100393E8030082E81A
S1132D400300F8681C37BD4680BC704780B58AB064
S1132D5000AF7861FB600B46FB741346BB74FB7CCD
S1132D6087F82730BB7C87F82630FB683B62FA681B
S1132D7007F1180392E8030083E80300FB681B795A
S1132D80613B0C2B00F2988001A252F823F000BFA3
S1132D90F92D0000992E0000792E0000192E000054
S1132DA0592E0000392E0000C52D0000B92E000058
S1132DB0B92E0000B92E0000B92E0000B92E000073
S1132DC0D92D000007F1180097F8262097F827104E
S1132DD03B6AFFF7FBFC6FE0384697F8262097F82C
S1132DE027103B6AFFF753FD07F118033A4692E8B0
S1132DF0030083E803005FE0384697F8262097F83D
S1132E0027103B6AFFF7A4FD07F118033A4692E83E
S1132E10030083E803004FE0384697F8262097F82C
S1132E2027103B6AFFF7F5FD07F118033A4692E8CD
S1132E30030083E803003FE0384697F8262097F81C
S1132E4027103B6AFFF746FE07F118033A4692E85B
S1132E50030083E803002FE0384697F8262097F80C
S1132E6027103B6AFFF785FE07F118033A4692E8FC
S1132E70030083E803001FE0384697F8262097F8FC
S1132E8027103B6AFFF7C4FE07F118033A4692E89D
S1132E90030083E803000FE0384697F8262097F8EC
S1132EA027103B6AFFF703FF07F118033A4692E83D
S1132EB0030083E8030000BFBB69072B02D1002392
S1132EC0BB6105E0BB69B3F1FF3F01D10623BB61E0
S1132ED07B691A4607F1180393E8030082E80300AC
S1132EE078692837BD4680BD80B485B000AF78606E
S1132EF07B68062B25D801A252F823F0192F000075
S1132F001F2F0000252F00002B2F0000312F000061
S1132F10372F00003D2F00006123FB7311E066236F
S1132F20FB730EE06723FB730BE06523FB7308E080
S1132F306423FB7305E06323FB7302E06223FB73EA
S1132F4000BFFB7B18461437BD4680BC704700BFEA
S1132F5080B584B000AF786039602748FFF7B4F8D3
S1132F600146264BA3FB0123CA1A520813449A08AC
S1132F701346DB009B1ACA1ABA60BB68062B10D131
S1132F801D48FFF7A1F801461C4BA3FB0123CA1AF5
S1132F90520813449A081346DB009B1ACA1AFA60B3
S1132FA00CE01548FFF790F80146154BA3FB0123ED
S1132FB09A0813469B001344CA1AFA607B68BA68DD
S1132FC01A60F868FFF790FF03461A467B681A7187
S1132FD07B681A683B681B689A4209D17B681A7936
S1132FE03B681B799A4203D139687868FFF7B0FFD0
S1132FF000BF1037BD4680BD000001402549922422
S1133000CDCCCCCC80B582B000AF786039607B6821
S113301000221A607B6867221A7179683868FFF7A2
S113302097FF00BF0837BD4680BD80B485B000AFB0
S11330300346FB710B46BB7113467B71FB79FB6046
S1133040BB79002B07D0FB680133FB60FB68052BC1
S113305001D10123FB607B79002B07D0FB68013B86
S1133060FB60FB68002B01D10423FB60FB68DBB22F
S113307018461437BD4680BC704780B485B000AF95
S1133080786039600023FB730123BB6016E07B6822
S11330901A68BB68DB0079680B441B689A420AD142
S11330A07B681A79BB68DB0079680B441B799A4208
S11330B001D10123FB73BB680133BB60BA683B6871
S11330C09A42E4DBFB7B18461437BD4680BC70474C
S11330D080B586B000AFF860B9607A60BB687B6188
S11330E0FB681A687B681B689A421ED1FB681A79D0
S11330F07B681B799A4218D17B69DB00FA68134418
S11331007A6812681A607B69DB00FA6813447A688B
S113311012791A717B6901337B6101217868FEF7AA
S1133120DFFFF9687868FFF713FF7B6918461837E3
S1133130BD4680BD90B5D3B000AF07F10C0420604C
S113314007F108000160394681E80C0007F1180313
S113315018464FF494731A46002100F087FB07F1D8
S113316008031B6803F10053013BDB0007F10C0269
S113317012681A4407F1100392E8030083E803007D
S113318007F1100301211846FEF7AAFF0123C7F82F
S1133190443128E0D7F8443103F10053013BDB000C
S11331A007F10C0212681344196807F11803D7F8E1
S11331B0442143F83210D7F8443103F10053013B62
S11331C0DB0007F10C0212681344197907F11802A5
S11331D0D7F84431DB0013440A461A71D7F8443156
S11331E00133C7F8443107F10803D7F844211B68B9
S11331F09A42CFDD3B461A6807F118031A603B4632
S11332001A7907F118031A710023C7F8403121E035
S1133210D7F84031DB0007F10C021268134407F1C0
S11332201802D7F8401152F831201A60D7F840310B
S1133230DB0007F10C0212681A4407F11801D7F8F1
S11332404031DB000B441B791371D7F84031013353
S1133250C7F8403107F10803D7F840211B689A42A8
S1133260D6DB00BF07F5A677BD4690BD80B483B01A
S113327000AF0346FB7197F90730002B0BDBFB799A
S113328003F01F02064997F907305B09012000FA91
S113329002F241F8232000BF0C37BD4680BC7047C2
S11332A000E100E080B483B000AF0346FB7197F9FE
S11332B00730002B0CDBFB7903F01F02074997F959
S11332C007305B09012000FA02F2603341F8232041
S11332D000BF0C37BD4680BC704700BF00E100E072
S11332E080B400AF034BDB6C1B0EDBB21846BD464B
S11332F080BC7047B081E00F80B483B000AF7860C9
S1133300044A7B68C2F81C3100BF0C37BD4680BC40
S1133310704700BF0060004080B584B002AF3960E0
S113332011461A460346FB710B46BB7113467B716B
S1133330BA79F8793B7C01937B79009313463A6818
S11333403968FEF7CFF900BF0837BD4680BD0000DD
S113335080B582B000AF0E4B01221A64FFF7C0FFA4
S11333600346FB713B1D1846FEF7D6FDFB790F2B78
S11333700AD93B79022B07D9064B1B6823F050036B
S1133380044A43F01003136000BF0837BD4680BDF4
S113339000000C40C0800C4080B483B000AF786063
S11333A07B680D4A93420BD07B680C4A934207D04A
S11333B07B680B4A934203D07B680A4A934201D14B
S11333C0012300E0002303F00103DBB218460C37AD
S11333D0BD4680BC704700BF0000014000040140AE
S11333E000080140000C014080B582B000AF786055
S11333F00B46FB707868FFF7CFFFFB78002B03D0F8
S11334007B6801225A6002E07B6802225A6000BF96
S11334100837BD4680BD000080B500AF044B0122D3
S11334201A704FF6FF70FFF767FF00BF80BD00BF43
S11334308D01002080B500AF044B01221A704FF6B5
S1133440FF70FFF759FF00BF80BD00BF8C01002053
S113345080B5D6B002AFFFF77BFF01217748FDF7B7
S1133460DFFC01217648FDF7DBFC07F59C730022A5
S11334701A605A609A601A73012387F8383100235E
S113348087F83A3107F59C7319466E48FEF7A8FD94
S113349001216C48FFF7A8FFFDF7DEF80123009334
S11334A00123002209210120FFF736FF01230093A5
S11334B0012300220A210120FFF72EFF0120FFF73C
S11334C0F1FE0B20FFF7EEFE0120FFF7CFFE0B20ED
S11334D0FFF7CCFE0020FCF7CFFF0123C7F84C31E7
S11334E007F1100318464FF494731A46002100F0B4
S11334F0BDF9012387F84B31012387F84A310023B2
S113350087F84931012387F848313B461A4600239E
S11335101360536007F1080207F1100311461846BF
S1133520FFF770FD5BE007F11003D7F84C11184664
S1133530FFF796F807F1080301211846FFF790F802
S1133540D7F84C01FFF728F80520FFF727F93E4B81
S11335501B78DBB2002B04D13C4B1B78DBB2002B75
S113356013D0394B1B78D9B2384B1B78DAB297F8A1
S11335704B311846FFF759FD034687F84B31324B60
S113358000221A70314B00221A70384607F11003DA
S113359097F84A2197F84B11FFF7D8FB3B4607F100
S11335A010000CCBD7F84C11FFF7C4FD07F1100342
S11335B0D7F84C111846FFF760FD034687F84931E8
S11335C007F1080207F11003D7F84C111846FFF76A
S11335D07FFDC7F84C0197F84B3187F84A3197F8CB
S11335E0493183F00103DBB2002B9CD107F11003B6
S11335F0D7F84C111846FEF773FD07F108030121B3
S11336001846FEF76DFD97F848311846FEF7F4FFAB
S113361097F84831002B14BF01230023DBB283F059
S11336200103DBB287F8483197F8483103F001030E
S113363087F848310520FFF7B1F8E4E700D2040029
S113364000520400000001408C0100208D01002084
S113365080B483B000AF0346FB71FB79002B03D029
S1133660054B01221A6602E0034B00221A6600BFD2
S11336700C37BD4680BC704700A0084080B483B0BE
S113368000AF786000BF054B5A6E7B681340002B77
S1133690F9D100BF0C37BD4680BC704700A008407C
S11336A080B586B000AF78604FF0FF30FFF7E6FFDB
S11336B00120FFF7CDFF0023BB753BE00023FB7522
S11336C032E0BA7DF97D20481346DB009B1A5B008B
S11336D003440B4407331B783B61BA7DF97D1A48D8
S11336E01346DB009B1A5B0003440B441B78FB600E
S11336F0BB7D7A6813441B781A46FB7D42FA03F3B8
S113370003F00103002B06D0FB6839690122184637
S1133710FEF78EF905E0FB68396900221846FEF7CA
S113372087F9FB7D0133FB75FB7D062BC9D9BB7D76
S11337300133BB75BB7D032BC0D90020FFF788FF85
S113374000BF1837BD4680BD0C00002080B586B090
S113375000AF78604FF0FF30FFF790FF0120FFF7D4
S113376077FF0023BB753CE00023FB7533E0BA7D93
S1133770F97D21481346DB009B1A9B0003440B444C
S11337800E331B783B61BA7DF97D1B481346DB0081
S11337909B1A9B0003440B441B78FB60BB7D5B00BE
S11337A07A6813441B881A46FB7D42FA03F303F03C
S11337B00103002B06D0FB68396901221846FEF785
S11337C037F905E0FB68396900221846FEF730F93D
S11337D0FB7D0133FB75FB7D0D2BC8D9BB7D01330C
S11337E0BB75BB7D062BBFD90020FFF731FF00BF9F
S11337F01837BD4680BD00BF4400002008B5074B04
S1133800044613B10021AFF30080054B1868836AA6
S113381003B19847204600F031F800BF00000000D3
S1133820BC38000070B500250C4E0D4CA41BA41030
S1133830A54209D100F024F800250A4E0A4CA41B25
S1133840A410A54205D170BD56F82530984701351E
S1133850EEE756F8253098470135F2E76801002075
S113386068010020680100206C0100200346024426
S1133870934200D1704703F8011BF9E7FEE700BF4C
S1133880F8B500BFF8BC08BC9E467047F8B500BF49
S1133890F8BC08BC9E4670470100000003004000CD
S11338A00C00000000000000000000000100000007
S11338B009000000010000000A00000008010020C7
S10738C00000000000
S10B38C458C8FF7F0100000059
S11338CC006CDC0200800000809FD500070502011B
S11338DC03060423232323232323070502010306BE
S11338EC0424242424242424070502010306042587
S11338FC252525252525070502010306042626264C
S113390C26262626010105070703040203020406E2
S113391C05060D0E0E0E0D0D0D0D0E0E0E0E0D0DCF
S113392C01010507070304020302040605060F1030
S113393C10100F0F0F0F101010100F0F01010507AF
S113394C07030402030204060506111212121111D4
S113395C11111212121211110101050707030402AD
S113396C030204060506131C1C1C131313131C1C42
S113397C1C1C1313000105070602030103020406B1
S113398C04051D1E1E1E1D1D1D1D1E1E1E1E1D1D81
S113399C00010507060203010302040604051F20A7
S11339AC20201F1F1F1F202020201F1F010105077F
S11339BC0703040203020406050621222222212104
S11339CC21212222222221210000000000000000DB
S11339DC00000000000000000000000000000000D7
S11339EC00000000000000000000000000000000C7
S11339FC00000000000000000000000000000000B7
S1133A0C00000000000000000000000000000000A6
S1133A1C0000000000000000000000000000000096
S1133A2C000000000000000001010000DD000000A7
S90301916A
